{
  "transactions": [
    {
      "hash": "0x8827840ce22bc778879649184ec8f1e2fe0e3e394bbd17dd9e8200103aea0f2a",
      "transactionType": "CALL",
      "contractName": null,
      "contractAddress": "0x960072bab02be3736f3bce60604966b73c70cb3c",
      "function": "unlock(bytes16)",
      "arguments": [
        "0x2ca52954d1612accde438c087c0678e000000000000000000000000000000000"
      ],
      "transaction": {
        "from": "0xc6b9b9cdaff1cd740879bc8e154777301b118e8c",
        "to": "0x960072bab02be3736f3bce60604966b73c70cb3c",
        "gas": "0x819b",
        "value": "0x0",
        "input": "0xe1afb08c2ca52954d1612accde438c087c0678e000000000000000000000000000000000",
        "nonce": "0x8",
        "chainId": "0x13882"
      },
      "additionalContracts": [],
      "isFixedGasLimit": false
    }
  ],
  "receipts": [
    {
      "status": "0x1",
      "cumulativeGasUsed": "0x5e4d1",
      "logs": [
        {
          "address": "0x0000000000000000000000000000000000001010",
          "topics": [
            "0x4dfe1bbbcf077ddc3e01291eea2d5c70c2b422b415d95645b9adcfd678cb1d63",
            "0x0000000000000000000000000000000000000000000000000000000000001010",
            "0x000000000000000000000000c6b9b9cdaff1cd740879bc8e154777301b118e8c",
            "0x0000000000000000000000006dc2dd54f24979ec26212794c71afefed722280c"
          ],
          "data": "0x000000000000000000000000000000000000000000000000000018085d0df20000000000000000000000000000000000000000000000000002b9987faffc8aa20000000000000000000000000000000000000000000001a13a52dbc39b7ad8f300000000000000000000000000000000000000000000000002b9807752ee98a20000000000000000000000000000000000000000000001a13a52f3cbf888caf3",
          "blockHash": "0xb03050533f4c54071dac6274dac93411c243d6a8b1e4fd3f945ab1df92f40311",
          "blockNumber": "0x7052d0",
          "transactionHash": "0x8827840ce22bc778879649184ec8f1e2fe0e3e394bbd17dd9e8200103aea0f2a",
          "transactionIndex": "0x1",
          "logIndex": "0xc",
          "removed": false
        }
      ],
      "logsBloom": "0x00000000000000000000000000000000000000000000000000000000000000000000000000000000000000000000000000008000000000000000000000000000000000000000000000000000000000800000000000000000000100080000000000000000000000000000000000000000000000000400000080000000000000020000000000000000000000000040000000000000000000000000000000000000200000000000000000000000000000000000000000000000000000000000004000200000000000000001000000000000000000000000000000100000000000000000000000000000000000000000000000000000000000000002000000100000",
      "type": "0x2",
      "transactionHash": "0x8827840ce22bc778879649184ec8f1e2fe0e3e394bbd17dd9e8200103aea0f2a",
      "transactionIndex": "0x1",
      "blockHash": "0xb03050533f4c54071dac6274dac93411c243d6a8b1e4fd3f945ab1df92f40311",
      "blockNumber": "0x7052d0",
      "gasUsed": "0x5dd6",
      "effectiveGasPrice": "0x4190ab0f",
      "from": "0xc6b9b9cdaff1cd740879bc8e154777301b118e8c",
      "to": "0x960072bab02be3736f3bce60604966b73c70cb3c",
      "contractAddress": null
    }
  ],
  "libraries": [],
  "pending": [],
  "returns": {},
  "timestamp": 1716391880,
  "chain": 80002,
  "commit": "ceee98d"
}